:0A02D3003F065B4F666D7D077F6FED
:0302E700010C0007
:04029C007FE87E0376
:0B02A000EF1FAC0670011E4C70F62230
:1001690020B11012029C20B107AD0C7F011202834D
:1001790030B1FD20B01012029C20B0077F0112029D
:10018900618F0C30B0FD20B2197F647E001202A08D
:1001990020B20C050CE50CD394FF4003E4F50C30B8
:1001A900B2FD20B30C12029C20B303E4F50C30B36A
:0201B900FD2225
:10008F00E50CFB7C037DE8FF7E0012011474D32F77
:10009F00F58274023EF583E493F5087C037DE8AFA7
:1000AF00037E00120114AA04AB057D647C00AF032C
:1000BF00AE0212011474D32FF58274023EF583E45D
:1000CF0093F5097D647C00AF03AE02120114AA04FC
:1000DF00AB057D0A7C00AF03AE0212011474D32F5F
:1000EF00F58274023EF583E493F50A7D0A7C00AF36
:1000FF0003AE0212011474D32DF58274023CF58302
:05010F00E493F50B2252
:1001FC00E4FDED14600E14601314601424037016E7
:10020C00D2A28002C2A2D2A3C2A4800AD2A280022D
:10021C00C2A2C2A3C2A474082DF8E6F5907FF47EA6
:0B022C00011202A0E4F5900DBD04C714
:0102370022A4
:0B02C80012016912008F1201FC80F58A
:0502BA001202BFD2A1F9
:0802BF007F017E02DEFEDFFA82
:0102C7002214
:0F02AB00D2A01202BAC2A01202BFC2A10202BFA9
:0A02DD00C2A01202BAD2A00202BFB2
:0201BB00AD078E
:1001BD00E4FBFAEDC4131313540124FF92A0ED25B3
:1001CD00E0FD1202BAC2A11202BF0BBB08E5D2A01C
:1001DD001202BFD2A130A00F0AEAD394C840F6C2D2
:0E01ED00A11202BF7F0022C2A11202BF7F0139
:0101FB0022E1
:10023800E4FDFCD2A01202BFD2A11202BFEC25E05D
:10024800FC1202BFA2A0E43342041202BFC2A112F0
:0802580002BF0DBD08E2AF0476
:01026000227B
:10028300AC05A9071202AB7FA01201BBAF0112019B
:09029300BBAF041201BB0202DD45
:02026100AC07E8
:100263001202AB7FA01201BBAF041201BB1202AB9F
:0F0273007FA11201BB120238AD071202DDAF05E9
:010282002259
:03000000020003F8
:0C000300787FE4F6D8FD75810C02004AFD
:10011400BC000BBE0029EF8DF084FFADF022E4CCCF
:10012400F875F008EF2FFFEE33FEEC33FCEE9DEC98
:10013400984005FCEE9DFE0FD5F0E9E4CEFD22EDDE
:10014400F8F5F0EE8420D21CFEADF075F008EF2F28
:10015400FFED33FD4007985006D5F0F222C398FD19
:050164000FD5F0EA22B6
:10000F000202C8E493A3F8E493A34003F68001F23D
:10001F0008DFF48029E493A3F85407240CC8C333F2
:10002F00C4540F4420C8834004F456800146F6DFC1
:10003F00E4800B01020408102040809002E7E47E68
:10004F00019360BCA3FF543F30E509541FFEE493B6
:10005F00A360010ECF54C025E060A840B8E493A37D
:10006F00FAE493A3F8E493A3C8C582C8CAC583CAA8
:10007F00F0A3C8C582C8CAC583CADFE9DEE780BE60
:0102EA000013
:00000001FF
